:020000040800F2
:1000000000280020DD0A00086D0A0008730A0008B5
:10001000790A00087F0A0008850A0008000000002D
:100020000000000000000000000000008B0A000833
:10003000970A000800000000A30A0008AF0A0008A1
:10004000250B0008250B0008250B0008250B0008D0
:10005000250B0008250B0008250B0008250B0008C0
:10006000250B0008250B0008250B0008250B0008B0
:10007000250B0008250B0008250B0008250B0008A0
:10008000250B0008250B0008250B0008250B000890
:10009000250B0008250B0008250B0008250B000880
:1000A000250B0008250B0008250B0008250B000870
:1000B000BD0A0008250B000800000000250B000801
:1000C000250B00080000000000000000250B0008C0
:1000D00000000000250B0008250B000800000000B0
:1000E000250B0008250B0008250B00080000000068
:1000F0000000000000000000000000000000000000
:0C01000000000000000000005FF808F1A3
:10010C0010B5054C237833B9044B13B10448AFF345
:10011C0000800123237010BD180000200000000097
:10012C007821000808B5034B1BB103490348AFF312
:10013C00008008BD000000001C0000207821000891
:10014C0080B500AF01220121114800F0F7FF012218
:10015C0002210F4800F0F2FF012204210C4800F0AC
:10016C00EDFF012208210A4800F0E8FF01221021CE
:10017C00074800F0E3FF01222021054800F0DEFFD4
:10018C0001224021024800F0D9FF00BF80BD00BF12
:10019C00000C014080B582B000AF7860FFF7D0FF53
:1001AC007B68092B00F27B8101A252F823F000BF7F
:1001BC00E50100082D0200086B020008B3020008DC
:1001CC00FB020008430300088B030008D30300085C
:1001DC001B0400086304000801224021B24800F00F
:1001EC00ADFF00220121B04800F0A8FF002202213F
:1001FC00AD4800F0A3FF00220421AB4800F09EFFA5
:10020C0000220821A84800F099FF00221021A648DE
:10021C0000F094FF00222021A34800F08FFF3EE164
:10022C0001220121A04800F089FF012220219E48D3
:10023C0000F084FF012210219B4800F07FFF012277
:10024C000821994800F07AFF00220221964800F01C
:10025C0075FF00220421944800F070FF1FE100227A
:10026C000121914800F06AFF002202218E4800F023
:10027C0065FF012204218C4800F060FF0022082158
:10028C00894800F05BFF00221021874800F056FFE0
:10029C0001222021844800F051FF00224021824895
:1002AC0000F04CFFFBE0002201217F4800F046FFEC
:1002BC00002202217C4800F041FF002204217A48F0
:1002CC0000F03CFF00220821774800F037FF0122A4
:1002DC001021754800F032FF01222021724800F0F5
:1002EC002DFF00224021704800F028FFD7E00122AA
:1002FC0001216D4800F022FF002202216A4800F023
:10030C001DFF00220421684800F018FF012208217B
:10031C00654800F013FF01221021634800F00EFF26
:10032C0000222021604800F009FF002240215E4895
:10033C0000F004FFB3E0002201215B4800F0FEFE58
:10034C0001220221584800F0F9FE002204215648EF
:10035C0000F0F4FE00220821534800F0EFFE0122C9
:10036C001021514800F0EAFE002220214E4800F0F6
:10037C00E5FE002240214C4800F0E0FE8FE0002218
:10038C000121494800F0DAFE01220221464800F022
:10039C00D5FE00220421444800F0D0FE00220821A2
:1003AC00414800F0CBFE002210213F4800F0C6FE71
:1003BC00002220213C4800F0C1FE002240213A4896
:1003CC0000F0BCFE6BE000220121374800F0B6FEC5
:1003DC0000220221344800F0B1FE002204213248F0
:1003EC0000F0ACFE012208212F4800F0A7FE0122EC
:1003FC0010212D4800F0A2FE012220212A4800F0F5
:10040C009DFE01224021284800F098FE47E0002282
:10041C000121254800F092FE00220221224800F022
:10042C008DFE00220421204800F088FE00220821C5
:10043C001D4800F083FE002210211B4800F07EFEB8
:10044C0000222021184800F079FE00224021164895
:10045C0000F074FE23E000220121134800F06EFE30
:10046C0000220221104800F069FE002204210E48EF
:10047C0000F064FE002208210B4800F05FFE012210
:10048C001021094800F05AFE00222021064800F0F5
:10049C0055FE00224021044800F050FE00BF00BF72
:1004AC000837BD4680BD00BF000C014080B582B04E
:1004BC0000AF78607B68032B7AD801A252F823F046
:1004CC00DD040008150500084D0500088505000829
:1004DC00454B1B681846FFF75DFE00224021434840
:1004EC0000F02CFE01228021404800F027FE012262
:1004FC004FF480713D4800F021FE01224FF4007151
:10050C003A4800F01BFE6AE0374B5B681846FFF771
:10051C0041FE01224021354800F010FE00228021CE
:10052C00324800F00BFE01224FF480712F4800F08E
:10053C0005FE01224FF400712C4800F0FFFD4EE047
:10054C00294B9B681846FFF725FE012240212748BE
:10055C0000F0F4FD01228021244800F0EFFD002280
:10056C004FF48071214800F0E9FD01224FF4007135
:10057C001E4800F0E3FD32E01B4BDB681846FFF72A
:10058C0009FE01224021194800F0D8FD01228021EA
:10059C00164800F0D3FD01224FF48071134800F08F
:1005AC00CDFD00224FF40071104800F0C7FD16E09D
:1005BC00002240210D4800F0C1FD002280210B4893
:1005CC0000F0BCFD00224FF48071084800F0B6FD2D
:1005DC0000224FF40071054800F0B0FD00BF00BFD1
:1005EC000837BD4680BD00BF7C00002000080140DC
:1005FC0080B400AF1A4B1B681A4A82FB031292108C
:10060C00DB17D31A184A1360154B1968154B83FB6B
:10061C0001239A10CB17D21A13469B0013445B008C
:10062C00CA1A114B5A60114B1B680E4A82FB0312FB
:10063C009210DB17D31A0C4A93600C4B1968094BB8
:10064C0083FB01239A10CB17D21A13469B00134439
:10065C005B00CA1A044BDA6000BFBD4680BC704711
:10066C0000000020676666667C0000200400002005
:10067C0080B500AF00F052FA00F014F800F09AF8D0
:10068C0000F04CF8054801F0B9F92021044800F0BD
:10069C006DFD4FF47A7000F0A3FAF6E734000020F9
:1006AC000008014080B590B000AF07F11803282274
:1006BC000021184601F02EFD3B1D00221A605A60E5
:1006CC009A60DA601A610223BB610123BB621023BA
:1006DC00FB6200237B6307F11803184600F060FDF2
:1006EC000346002B01D000F05FF90F237B60002341
:1006FC00BB600023FB6000233B6100237B613B1D3F
:10070C000021184600F0CEFF0346002B01D000F06C
:10071C004BF900BF4037BD4680BD000080B586B0A8
:10072C0000AF07F1080300221A605A609A60DA6081
:10073C003B4600221A605A601D4B4FF080421A60F3
:10074C001B4B41F63F725A60194B00229A60184BB2
:10075C000922DA60164B00221A61154B00229A61AD
:10076C00134801F0FBF80346002B01D000F01CF9F4
:10077C004FF48053BB6007F1080319460C4801F095
:10078C0079FA0346002B01D000F00EF900233B60F0
:10079C0000237B603B461946054801F051FC03469B
:1007AC00002B01D000F000F900BF1837BD4680BD0A
:1007BC003400002080B586B000AF07F1080300229A
:1007CC001A605A609A60DA60214B9B69204A43F0A8
:1007DC00040393611E4B9B6903F004037B607B68ED
:1007EC001B4B9B691A4A43F008039361184B9B6996
:1007FC0003F008033B603B6800224FF47C71154802
:10080C0000F09CFC00227F21134800F097FC4FF471
:10081C007C73BB600123FB6000233B6102237B6183
:10082C0007F1080319460B4800F00CFB7F23BB6053
:10083C000123FB6000233B6102237B6107F108036A
:10084C001946054800F0FEFA00BF1837BD4680BDBA
:10085C000010024000080140000C014080B582B03D
:10086C0000AF7860494B1B680133484A1360474B13
:10087C001B68642B06DD1021454800F077FC434BC8
:10088C0000221A60414B1B68B3F57A7F28DB3F4B83
:10089C0000221A603F4B1B6801333E4A13603D4BEC
:1008AC001B683B2B1ADD3B4B00221A603A4B1B6832
:1008BC000133394A1360384B1B683B2B0EDD364B2A
:1008CC0000221A60354B1B680133344A1360334BDA
:1008DC001B68172B02DD314B00221A60FFF788FED4
:1008EC002F4B1B68C822934208D12E4B1B685A1CF5
:1008FC002C490A601846FFF7D9FD2FE0C822134691
:10090C005B0013449B08264A1268934208D1254B7E
:10091C001B685A1C23490A601846FFF7C7FD1DE0E7
:10092C00C8235B009B081E4A1268934208D11D4BDA
:10093C001B685A1C1B490A601846FFF7B7FD0DE0EF
:10094C00C8239B08164A1268934207D1154B1B68A3
:10095C005A1C14490A601846FFF7A8FD114B1B6876
:10096C000422934202D30F4B00221A600C4B1B68DB
:10097C00002B03DD0A4B1B68013B00E0C823084A2F
:10098C00136000BF0837BD4680BD00BF9400002037
:10099C00000801408C000020040000200000002012
:1009AC00080000209000002080B400AF72B600BF99
:1009BC00FEE7000080B485B000AF154B9B69144A6C
:1009CC0043F001039361124B9B6903F00103BB607D
:1009DC00BB680F4BDB690E4A43F08053D3610C4B61
:1009EC00DB6903F080537B607B680A4B5B68FB60C0
:1009FC00FB6823F0E063FB60FB6843F08063FB6003
:100A0C00044AFB68536000BF1437BD4680BC704776
:100A1C00001002400000014080B584B000AF786047
:100A2C007B681B68B3F1804F13D10C4BDB690B4A0D
:100A3C0043F00103D361094BDB6903F00103FB6055
:100A4C00FB68002200211C2000F0C5F91C2000F0DE
:100A5C00DEF900BF1037BD4680BD00BF001002405C
:100A6C0080B400AFFEE780B400AFFEE780B400AF07
:100A7C00FEE780B400AFFEE780B400AFFEE780B4C1
:100A8C0000AF00BFBD4680BC704780B400AF00BF54
:100A9C00BD4680BC704780B400AF00BFBD4680BC73
:100AAC00704780B500AF00F07FF800BF80BD00003C
:100ABC0080B500AF024800F0EDFF00BF80BD00BF65
:100ACC003400002080B400AF00BFBD4680BC70472E
:100ADC00FFF7F8FF0B480C490C4A002302E0D458EE
:100AEC00C4500433C4188C42F9D3094A094C00236E
:100AFC0001E013600432A242FBD301F013FBFFF7B9
:100B0C00B7FD70470000002018000020BC21000831
:100B1C00180000209C000020FEE7000080B500AF0C
:100B2C00084B1B68074A43F010031360032000F0C6
:100B3C0047F90F2000F008F8FFF73CFF0023184698
:100B4C0080BD00BF0020024080B582B000AF78604D
:100B5C00124B1A68124B1B7819464FF47A73B3FB7D
:100B6C00F1F3B2FBF3F3184600F05FF90346002BE8
:100B7C0001D001230EE07B680F2B0AD80022796884
:100B8C004FF0FF3000F027F9064A7B681360002312
:100B9C0000E0012318460837BD4680BD0C0000203C
:100BAC00140000201000002080B400AF054B1B780F
:100BBC001A46054B1B681344034A136000BFBD461D
:100BCC0080BC7047140000209800002080B400AF57
:100BDC00024B1B681846BD4680BC7047980000202D
:100BEC0080B584B000AF7860FFF7F0FFB8607B6829
:100BFC00FB60FB68B3F1FF3F05D00A4B1B781A462C
:100C0C00FB681344FB6000BFFFF7E0FF0246BB68C4
:100C1C00D31AFA689A42F7D800BF00BF1037BD4606
:100C2C0080BD00BF1400002080B485B000AF786098
:100C3C007B6803F00703FB600C4BDB68BB60BA6896
:100C4C004FF6FF031340BB60FB681A02BB681343EB
:100C5C0043F0BF6343F40033BB60044ABB68D3600A
:100C6C0000BF1437BD4680BC704700BF00ED00E0EC
:100C7C0080B400AF044BDB681B0A03F00703184673
:100C8C00BD4680BC704700BF00ED00E080B483B06F
:100C9C0000AF0346FB7197F90730002B0BDBFB7998
:100CAC0003F01F02064997F907305B09012000FA8F
:100CBC0002F241F8232000BF0C37BD4680BC7047C0
:100CCC0000E100E080B483B000AF03463960FB71F3
:100CDC0097F90730002B0ADB3B68DAB20C4997F91D
:100CEC0007301201D2B20B4483F800230AE03B68B0
:100CFC00DAB20849FB7903F00F03043B1201D2B2BC
:100D0C000B441A7600BF0C37BD4680BC704700BF41
:100D1C0000E100E000ED00E080B489B000AFF860C5
:100D2C00B9607A60FB6803F00703FB61FB69C3F1F0
:100D3C000703042B28BF0423BB61FB690433062B78
:100D4C0002D9FB69033B00E000237B614FF0FF32CB
:100D5C00BB6902FA03F3DA43BB681A407B699A4019
:100D6C004FF0FF317B6901FA03F3D9437B680B40E9
:100D7C00134318462437BD4680BC704780B582B0FB
:100D8C0000AF78607B68013BB3F1807F01D3012316
:100D9C000FE00A4A7B68013B53600F214FF0FF3094
:100DAC00FFF790FF054B00229A60044B07221A6054
:100DBC00002318460837BD4680BD00BF10E000E098
:100DCC0080B582B000AF78607868FFF72DFF00BF68
:100DDC000837BD4680BD80B586B000AF0346B9600C
:100DEC007A60FB7300237B61FFF742FF78617A68BE
:100DFC00B9687869FFF790FF024697F90F301146F2
:100E0C001846FFF75FFF00BF1837BD4680BD80B5A1
:100E1C0082B000AF0346FB7197F907301846FFF715
:100E2C0035FF00BF0837BD4680BD80B582B000AF2E
:100E3C0078607868FFF7A2FF034618460837BD466E
:100E4C0080BD000080B48BB000AF786039600023A7
:100E5C007B6200233B6261E101227B6A02FA03F3AD
:100E6C00FB613B681B68FA691340BB61BA69FB699B
:100E7C009A4240F050813B685B68974A93425ED03F
:100E8C00954A934275D8954A934258D0934A9342C7
:100E9C006FD8934A934252D0914A934269D8914A5F
:100EAC0093424CD08F4A934263D88F4A934246D098
:100EBC008D4A93425DD8122B2AD8122B59D801A2F5
:100ECC0052F823F04B0F0008250F0008370F0008CD
:100EDC00790F00087F0F00087F0F00087F0F0008B4
:100EEC007F0F00087F0F00087F0F00087F0F00089E
:100EFC007F0F00087F0F00087F0F00087F0F00088E
:100F0C007F0F00087F0F00082D0F0008410F00080D
:100F1C00764A934213D02CE03B68DB683B6229E0B5
:100F2C003B68DB6804333B6224E03B68DB680833D6
:100F3C003B621FE03B68DB680C333B621AE03B68AA
:100F4C009B68002B02D104233B6213E03B689B6837
:100F5C00012B05D108233B627B68FA691A6109E011
:100F6C0008233B627B68FA695A6103E000233B6209
:100F7C0000E000BFBB69FF2B01D87B6801E07B68F8
:100F8C0004337B61BB69FF2B02D87B6A9B0002E0B8
:100F9C007B6A083B9B003B617B691A680F213B69AC
:100FAC0001FA03F3DB431A40396A3B6901FA03F394
:100FBC001A437B691A603B685B6803F08053002B13
:100FCC0000F0A9804A4B9B69494A43F001039361A5
:100FDC00474B9B6903F00103BB60BB68454A7B6AC6
:100FEC009B08023352F82330FB607B6A03F0030347
:100FFC009B000F2202FA03F3DB43FA681340FB60F9
:10100C007B683D4A93420DD07B683C4A934207D0A3
:10101C007B683B4A934201D1022304E0032302E0A4
:10102C00012300E000237A6A02F00302920093404D
:10103C00FA681343FB602F497B6A9B080233FA68FA
:10104C0041F823203B685B6803F48013002B06D027
:10105C002C4B9A682B49BB6913438B6006E0294BD8
:10106C009A68BB69DB43274913408B603B685B681C
:10107C0003F40013002B06D0224BDA682149BB691C
:10108C001343CB6006E01F4BDA68BB69DB431D4999
:10109C001340CB603B685B6803F40033002B06D035
:1010AC00184B5A681749BB6913434B6006E0154B44
:1010BC005A68BB69DB43134913404B603B685B6860
:1010CC0003F48033002B1FD00E4B1A680D49BB69FB
:1010DC0013430B601FE000BF000032100000311002
:1010EC00000022100000211000001210000011104E
:1010FC00001002400000014000080140000C0140BB
:10110C0000100140000401400B4B1A68BB69DB4323
:10111C00094913400B607B6A01337B623B681A6898
:10112C007B6A22FA03F3002B7FF496AE00BF00BF5C
:10113C002C37BD4680BC70470004014080B483B09E
:10114C0000AF78600B467B8013467B707B78002B5E
:10115C0003D07A887B681A6103E07B881A047B6869
:10116C001A6100BF0C37BD4680BC704780B485B097
:10117C0000AF78600B467B807B68DB68FB607A880D
:10118C00FB6813401A04FB68D9437B880B401A4355
:10119C007B681A6100BF1437BD4680BC70470000E5
:1011AC0080B586B000AF78607B68002B01D101233D
:1011BC0072E27B681B6803F00103002B00F0878050
:1011CC00924B5B6803F00C03042B0CD08F4B5B68C9
:1011DC0003F00C03082B12D18C4B5B6803F48033A7
:1011EC00B3F5803F0BD1894B1B6803F40033002B04
:1011FC006CD07B685B68002B68D101234CE27B6868
:10120C005B68B3F5803F06D1804B1B687F4A43F483
:10121C00803313602EE07B685B68002B0CD17B4B1A
:10122C001B687A4A23F480331360784B1B68774A27
:10123C0023F4802313601DE07B685B68B3F5A02F5B
:10124C000CD1724B1B68714A43F4802313606F4BB3
:10125C001B686E4A43F4803313600BE06B4B1B68C6
:10126C006A4A23F480331360684B1B68674A23F483
:10127C00802313607B685B68002B13D0FFF7A6FC00
:10128C00386108E0FFF7A2FC02463B69D31A642BD5
:10129C0001D9032300E25D4B1B6803F40033002BE0
:1012AC00F0D014E0FFF792FC386108E0FFF78EFCF9
:1012BC0002463B69D31A642B01D90323ECE1534B4F
:1012CC001B6803F40033002BF0D100E000BF7B68F7
:1012DC001B6803F00203002B63D04C4B5B6803F0DC
:1012EC000C03002B0BD0494B5B6803F00C03082B51
:1012FC001CD1464B5B6803F48033002B16D1434B57
:10130C001B6803F00203002B05D07B681B69012BC3
:10131C0001D00123C0E13D4B1B6823F0F8027B6830
:10132C005B69DB00394913430B603AE07B681B694E
:10133C00002B20D0364B01221A60FFF747FC386196
:10134C0008E0FFF743FC02463B69D31A022B01D994
:10135C000323A1E12D4B1B6803F00203002BF0D0FB
:10136C002A4B1B6823F0F8027B685B69DB0027497A
:10137C0013430B6015E0264B00221A60FFF726FC86
:10138C00386108E0FFF722FC02463B69D31A022BB6
:10139C0001D9032380E11D4B1B6803F00203002BD2
:1013AC00F0D17B681B6803F00803002B3AD07B68F4
:1013BC009B69002B19D0174B01221A60FFF706FC12
:1013CC00386108E0FFF702FC02463B69D31A022B96
:1013DC0001D9032360E10D4B5B6A03F00203002B80
:1013EC00F0D0012000F09CFA1CE00A4B00221A609D
:1013FC00FFF7ECFB38610FE0FFF7E8FB02463B69B7
:10140C00D31A022B08D9032346E100BF0010024077
:10141C000000424280044242924B5B6A03F002039A
:10142C00002BE9D17B681B6803F00403002B00F050
:10143C00A6800023FB758B4BDB6903F08053002BDC
:10144C000DD1884BDB69874A43F08053D361854BC0
:10145C00DB6903F08053BB60BB680123FB75824BD7
:10146C001B6803F48073002B18D17F4B1B687E4ADA
:10147C0043F480731360FFF7A9FB386108E0FFF7B2
:10148C00A5FB02463B69D31A642B01D9032303E164
:10149C00754B1B6803F48073002BF0D07B68DB6802
:1014AC00012B06D16F4B1B6A6E4A43F0010313628A
:1014BC002DE07B68DB68002B0CD16A4B1B6A694AF8
:1014CC0023F001031362674B1B6A664A23F0040383
:1014DC0013621CE07B68DB68052B0CD1614B1B6A2B
:1014EC00604A43F0040313625E4B1B6A5D4A43F08F
:1014FC00010313620BE05B4B1B6A5A4A23F0010396
:10150C001362584B1B6A574A23F0040313627B681F
:10151C00DB68002B15D0FFF759FB38610AE0FFF7A9
:10152C0055FB02463B69D31A41F28832934201D9EA
:10153C000323B1E04B4B1B6A03F00203002BEED0EC
:10154C0014E0FFF743FB38610AE0FFF73FFB02466C
:10155C003B69D31A41F28832934201D903239BE0B1
:10156C00404B1B6A03F00203002BEED1FB7D012BD9
:10157C0005D13C4BDB693B4A23F08053D3617B683C
:10158C00DB69002B00F08780364B5B6803F00C03A3
:10159C00082B61D07B68DB69022B46D1334B0022D0
:1015AC001A60FFF713FB386108E0FFF70FFB0246E8
:1015BC003B69D31A022B01D903236DE0294B1B681D
:1015CC0003F00073002BF0D17B681B6AB3F5803FEE
:1015DC0008D1244B5B6823F400327B689B6821495B
:1015EC0013434B601F4B5B6823F474127B68196ABE
:1015FC007B685B6A0B431B4913434B601B4B0122FB
:10160C001A60FFF7E3FA386108E0FFF7DFFA0246E9
:10161C003B69D31A022B01D903233DE0114B1B6804
:10162C0003F00073002BF0D035E0104B00221A6051
:10163C00FFF7CCFA386108E0FFF7C8FA02463B69BD
:10164C00D31A022B01D9032326E0064B1B6803F0A7
:10165C000073002BF0D11EE07B68DB69012B07D1F6
:10166C00012319E00010024000700040600042426B
:10167C000B4B5B68FB60FB6803F480327B681B6A76
:10168C009A4206D1FB6803F470127B685B6A9A423B
:10169C0001D0012300E0002318461837BD4680BD59
:1016AC000010024080B584B000AF786039607B6870
:1016BC00002B01D10123D0E06A4B1B6803F0070318
:1016CC003A689A4210D9674B1B6823F007026549A8
:1016DC003B6813430B60634B1B6803F007033A68CA
:1016EC009A4201D00123B8E07B681B6803F0020327
:1016FC00002B20D07B681B6803F00403002B05D063
:10170C00594B5B68584A43F4E06353607B681B6831
:10171C0003F00803002B05D0534B5B68524A43F48B
:10172C0060535360504B5B6823F0F0027B689B68FE
:10173C004D4913434B607B681B6803F00103002B7E
:10174C0040D07B685B68012B07D1474B1B6803F4C7
:10175C000033002B15D101237FE07B685B68022BE3
:10176C0007D1414B1B6803F00073002B09D10123F7
:10177C0073E03D4B1B6803F00203002B01D10123E6
:10178C006BE0394B5B6823F003027B685B6836497E
:10179C0013434B60FFF71AFAF8600AE0FFF716FAEA
:1017AC000246FB68D31A41F28832934201D90323D3
:1017BC0053E02D4B5B6803F00C027B685B689B006D
:1017CC009A42EBD1274B1B6803F007033A689A4205
:1017DC0010D2244B1B6823F0070222493B681343A9
:1017EC000B60204B1B6803F007033A689A4201D048
:1017FC00012332E07B681B6803F00403002B08D044
:10180C00194B5B6823F4E0627B68DB681649134371
:10181C004B607B681B6803F00803002B09D0124B4C
:10182C005B6823F460527B681B69DB000E49134331
:10183C004B6000F021F802460B4B5B681B0903F070
:10184C000F030A49CB5C22FA03F3094A1360094BD4
:10185C001B681846FFF778F9002318461037BD4669
:10186C0080BD00BF00200240001002409021000803
:10187C000C0000201000002080B487B000AF0023C3
:10188C00FB600023BB6000237B6100237B60002393
:10189C003B611E4B5B68FB60FB6803F00C03042B85
:1018AC0002D0082B03D027E0194B3B6127E0FB68E3
:1018BC009B0C03F00F03174AD35C7B60FB6803F4AB
:1018CC008033002B10D0114B5B685B0C03F00103D1
:1018DC00114AD35CBB607B680D4A03FB02F2BB6808
:1018EC00B2FBF3F37B6104E07B680C4A02FB03F36D
:1018FC007B617B693B6102E0054B3B6100BF3B694F
:10190C0018461C37BD4680BC704700BF0010024013
:10191C0000127A00A0210008B021000800093D0047
:10192C0080B485B000AF78600A4B1B680A4AA2FBF2
:10193C0003235B0A7A6802FB03F3FB6000BFFB68BE
:10194C005A1EFA60002BF9D100BF00BF1437BD46F8
:10195C0080BC70470C000020D34D621080B582B063
:10196C0000AF78607B68002B01D1012341E07B68DC
:10197C0093F83D30DBB2002B06D17B68002283F854
:10198C003C207868FFF748F87B68022283F83D20FA
:10199C007B681A687B6804331946104600F056FAC7
:1019AC007B68012283F846207B68012283F83E2065
:1019BC007B68012283F83F207B68012283F840205A
:1019CC007B68012283F841207B68012283F8422046
:1019DC007B68012283F843207B68012283F8442032
:1019EC007B68012283F845207B68012283F83D2027
:1019FC00002318460837BD4680BD000080B485B072
:101A0C0000AF78607B6893F83D30DBB2012B01D0DE
:101A1C00012335E07B68022283F83D207B681B683C
:101A2C00DA687B681B6842F00102DA607B681B682D
:101A3C00164A934209D07B681B68B3F1804F04D0DF
:101A4C007B681B68124A934211D17B681B689B68A8
:101A5C0003F00703FB60FB68062B10D07B681B6848
:101A6C001A687B681B6842F001021A6007E07B6809
:101A7C001B681A687B681B6842F001021A6000231D
:101A8C0018461437BD4680BC704700BF002C01407F
:101A9C000004004080B584B000AF78607B681B68A0
:101AAC00DB68FB607B681B681B69BB60BB6803F071
:101ABC000203002B20D0FB6803F00203002B1BD089
:101ACC007B681B686FF002021A617B6801221A772F
:101ADC007B681B689B6903F00303002B03D07868B9
:101AEC0000F098F905E0786800F08BF9786800F060
:101AFC009AF97B6800221A77BB6803F00403002B69
:101B0C0020D0FB6803F00403002B1BD07B681B6800
:101B1C006FF004021A617B6802221A777B681B68DB
:101B2C009B6903F44073002B03D0786800F072F9C2
:101B3C0005E0786800F065F9786800F074F97B6866
:101B4C0000221A77BB6803F00803002B20D0FB6837
:101B5C0003F00803002B1BD07B681B686FF0080296
:101B6C001A617B6804221A777B681B68DB6903F0B7
:101B7C000303002B03D0786800F04CF905E078687B
:101B8C0000F03FF9786800F04EF97B6800221A7774
:101B9C00BB6803F01003002B20D0FB6803F010038C
:101BAC00002B1BD07B681B686FF010021A617B68DE
:101BBC0008221A777B681B68DB6903F44073002BDF
:101BCC0003D0786800F026F905E0786800F019F980
:101BDC00786800F028F97B6800221A77BB6803F05C
:101BEC000103002B0CD0FB6803F00103002B07D082
:101BFC007B681B686FF001021A617868FEF72EFE95
:101C0C00BB6803F08003002B0CD0FB6803F080034F
:101C1C00002B07D07B681B686FF080021A61786814
:101C2C0000F06FFABB6803F04003002B0CD0FB688C
:101C3C0003F04003002B07D07B681B686FF0400259
:101C4C001A61786800F0F8F8BB6803F02003002BE9
:101C5C000CD0FB6803F02003002B07D07B681B68BB
:101C6C006FF020021A61786800F042FA00BF10375A
:101C7C00BD4680BD80B584B000AF7860396000236C
:101C8C00FB737B6893F83C30012B01D10223B4E049
:101C9C007B68012283F83C207B68022283F83D207C
:101CAC007B681B689B68BB60BB6823F07703BB60D9
:101CBC00BB6823F47F43BB607B681B68BA689A607F
:101CCC003B681B68B3F5005F3ED0B3F5005F00F2D4
:101CDC008780B3F5805F00F08680B3F5805F7FD896
:101CEC00702B1AD0702B7BD8602B50D0602B77D8F0
:101CFC00502B3CD0502B73D8402B58D0402B6FD846
:101D0C00302B64D0302B6BD8202B60D0202B67D895
:101D1C00002B5CD0102B5AD062E07B6818683B68B3
:101D2C0099683B685A683B68DB6800F06AF97B6825
:101D3C001B689B68BB60BB6843F07703BB607B6828
:101D4C001B68BA689A604FE07B6818683B689968B2
:101D5C003B685A683B68DB6800F053F97B681B688A
:101D6C009A687B681B6842F480429A603CE07B680E
:101D7C0018683B6859683B68DB681A4600F0CAF87B
:101D8C007B681B685021184600F021F92CE07B6819
:101D9C0018683B6859683B68DB681A4600F0E8F83D
:101DAC007B681B686021184600F011F91CE07B6809
:101DBC0018683B6859683B68DB681A4600F0AAF85B
:101DCC007B681B684021184600F001F90CE07B6829
:101DDC001A683B681B681946104600F0F8F803E0D7
:101DEC000123FB7300E000BF7B68012283F83D20D8
:101DFC007B68002283F83C20FB7B18461037BD46DD
:101E0C0080BD80B483B000AF786000BF0C37BD4696
:101E1C0080BC704780B483B000AF786000BF0C37D3
:101E2C00BD4680BC704780B483B000AF786000BF03
:101E3C000C37BD4680BC704780B483B000AF78606F
:101E4C0000BF0C37BD4680BC7047000080B485B025
:101E5C0000AF786039607B681B68FB607B682B4A3D
:101E6C00934207D07B68B3F1804F03D07B68284A3C
:101E7C00934208D1FB6823F07003FB603B685B68FE
:101E8C00FA681343FB607B68204A934207D07B6857
:101E9C00B3F1804F03D07B681D4A934208D1FB6895
:101EAC0023F44073FB603B68DB68FA681343FB6008
:101EBC00FB6823F080023B685B691343FB607B6823
:101ECC00FA681A603B689A687B68DA623B681A6841
:101EDC007B689A627B680D4A934203D13B681A690E
:101EEC007B681A637B6801225A617B681B6903F06B
:101EFC000103002B05D07B681B6923F001027B6872
:101F0C001A6100BF1437BD4680BC7047002C0140DD
:101F1C000004004080B487B000AFF860B9607A600C
:101F2C00FB681B6A7B61FB681B6A23F00102FB6880
:101F3C001A62FB689B693B613B6923F0F0033B61D0
:101F4C007B681B013A6913433B617B6923F00A03ED
:101F5C007B617A69BB6813437B61FB683A699A6160
:101F6C00FB687A691A6200BF1C37BD4680BC70479B
:101F7C0080B487B000AFF860B9607A60FB681B6A08
:101F8C007B61FB681B6A23F01002FB681A62FB681A
:101F9C009B693B613B6923F470433B617B681B038A
:101FAC003A6913433B617B6923F0A0037B61BB68F7
:101FBC001B017A6913437B61FB683A699A61FB6880
:101FCC007A691A6200BF1C37BD4680BC704780B46A
:101FDC0085B000AF786039607B689B68FB60FB68FC
:101FEC0023F07003FB603A68FB68134343F007036C
:101FFC00FB607B68FA689A6000BF1437BD4680BCF2
:10200C00704780B487B000AFF860B9607A603B600D
:10201C00FB689B687B617B6923F47F437B613B6836
:10202C001A027B681A43BB6813437A6913437B61BA
:10203C00FB687A699A6000BF1C37BD4680BC70474C
:10204C0080B485B000AF786039607B6893F83C3021
:10205C00012B01D1022341E07B68012283F83C2053
:10206C007B68022283F83D207B681B685B68FB6001
:10207C007B681B689B68BB60FB6823F07003FB608C
:10208C003B681B68FA681343FB607B681B68FA6843
:10209C005A607B681B68144A934209D07B681B68A2
:1020AC00B3F1804F04D07B681B68104A93420CD16B
:1020BC00BB6823F08003BB603B685B68BA68134362
:1020CC00BB607B681B68BA689A607B68012283F8E6
:1020DC003D207B68002283F83C20002318461437EF
:1020EC00BD4680BC704700BF002C0140000400407E
:1020FC0080B483B000AF786000BF0C37BD4680BCA5
:10210C00704780B483B000AF786000BF0C37BD4619
:10211C0080BC704703460244934200D1704703F8D9
:10212C00011BF9E770B500260C4D0D4C641BA41077
:10213C00A64209D100F01AF800260A4D0A4C641B7D
:10214C00A410A64205D170BD55F8043B9847013642
:10215C00EEE755F8043B98470136F2E7B421000846
:10216C00B4210008B4210008B8210008F8B500BF5C
:10217C00F8BC08BC9E467047F8B500BFF8BC08BC5C
:04218C009E467047B4
:102190000000000000000000010203040607080917
:1021A00002030405060708090A0B0C0D0E0F101098
:0421B0000102000028
:0421B40031010008ED
:0421B8000D0100080D
:1021BC000C00000022000000C800000000127A0091
:0821CC001000000001000000FA
:0400000508000ADD08
:00000001FF
