:020000040800F2
:1000000000280020F50D0008850D00088B0D000864
:10001000910D0008970D00089D0D000800000000DC
:10002000000000000000000000000000A30D000818
:10003000AF0D000800000000BB0D0008C70D000850
:100040003D0E00083D0E00083D0E00083D0E000864
:100050003D0E00083D0E00083D0E00083D0E000854
:100060003D0E00083D0E00083D0E00083D0E000844
:100070003D0E00083D0E00083D0E00083D0E000834
:100080003D0E00083D0E00083D0E00083D0E000824
:100090003D0E00083D0E00083D0E00083D0E000814
:1000A0003D0E00083D0E00083D0E00083D0E000804
:1000B000D50D00083D0E0008000000003D0E0008B0
:1000C0003D0E000800000000000000003D0E00088A
:1000D000000000003D0E00083D0E0008000000007A
:1000E0003D0E00083D0E00083D0E00080000000017
:1000F0000000000000000000000000000000000000
:0C01000000000000000000005FF808F1A3
:10010C0010B5054C237833B9044B13B10448AFF345
:10011C0000800123237010BD34000020000000007B
:10012C009024000808B5034B1BB103490348AFF3F7
:10013C00008008BD0000000038000020902400085A
:10014C0080B483B000AF78607B68084A82FB0312EE
:10015C009210DB17D31A064A1360064B00221A6062
:10016C0000BF0C37BD4680BC704700BF6766666633
:10017C00980000209C00002080B400AF094B1B6845
:10018C00002B0BDD074B1B68013B064A1360054B2C
:10019C001B68002B02D1044B01221A6000BFBD4624
:1001AC0080BC7047980000209C00002080B500AFF8
:1001BC0001220121114801F04DF9012202210F48C1
:1001CC0001F048F9012204210C4801F043F9012205
:1001DC0008210A4801F03EF901221021074801F0DC
:1001EC0039F901222021054801F034F9012240217E
:1001FC00024801F02FF900BF80BD00BF000C014088
:10020C0080B582B000AF7860FFF7D0FF7B68092B18
:10021C0000F27B8101A252F823F000BF51020008CA
:10022C0099020008D70200081F03000867030008A2
:10023C00AF030008F70300083F0400088704000818
:10024C00CF04000801224021B24801F003F900223A
:10025C000121B04801F0FEF800220221AD4801F066
:10026C00F9F800220421AB4801F0F4F8002208212F
:10027C00A84801F0EFF800221021A64801F0EAF896
:10028C0000222021A34801F0E5F83EE101220121E2
:10029C00A04801F0DFF8012220219E4801F0DAF895
:1002AC00012210219B4801F0D5F801220821994820
:1002BC0001F0D0F800220221964801F0CBF8002280
:1002CC000421944801F0C6F81FE100220121914855
:1002DC0001F0C0F8002202218E4801F0BBF8012287
:1002EC0004218C4801F0B6F800220821894801F05D
:1002FC00B1F800221021874801F0ACF8012220212E
:10030C00844801F0A7F800224021824801F0A2F8AD
:10031C00FBE0002201217F4801F09CF80022022121
:10032C007C4801F097F8002204217A4801F092F8F9
:10033C0000220821774801F08DF801221021754820
:10034C0001F088F801222021724801F083F8002284
:10035C004021704801F07EF8D7E0012201216D4860
:10036C0001F078F8002202216A4801F073F80022AB
:10037C000421684801F06EF801220821654801F05B
:10038C0069F801221021634801F064F80022202151
:10039C00604801F05FF8002240215E4801F05AF8F5
:1003AC00B3E0002201215B4801F054F80122022144
:1003BC00584801F04FF800220421564801F04AF841
:1003CC0000220821534801F045F801221021514820
:1003DC0001F040F8002220214E4801F03BF80022A9
:1003EC0040214C4801F036F88FE0002201214948A9
:1003FC0001F030F801220221464801F02BF80022CE
:10040C000421444801F026F800220821414801F05B
:10041C0021F8002210213F4801F01CF80022202175
:10042C003C4801F017F8002240213A4801F012F83C
:10043C006BE000220121374801F00CF80022022168
:10044C00344801F007F800220421324801F002F888
:10045C00012208212F4800F0FDFF012210212D4818
:10046C0000F0F8FF012220212A4800F0F3FF0122BE
:10047C004021284800F0EEFF47E0002201212548EA
:10048C0000F0E8FF00220221224800F0E3FF0022E6
:10049C000421204800F0DEFF002208211D4800F056
:1004AC00D9FF002210211B4800F0D4FF002220218C
:1004BC00184800F0CFFF00224021164800F0CAFF78
:1004CC0023E000220121134800F0C4FF0022022186
:1004DC00104800F0BFFF002204210E4800F0BAFFC4
:1004EC00002208210B4800F0B5FF01221021094819
:1004FC0000F0B0FF00222021064800F0ABFF0022E4
:10050C004021044800F0A6FF00BF00BF0837BD46DD
:10051C0080BD00BF000C014080B582B000AF786098
:10052C007B68032B7AD801A252F823F04905000806
:10053C0081050008B9050008F1050008454B1B684A
:10054C001846FFF75DFE00224021434800F082FF71
:10055C0001228021404800F07DFF01224FF4807180
:10056C003D4800F077FF01224FF400713A4800F04B
:10057C0071FF6AE0374B5B681846FFF741FE0122BA
:10058C004021354800F066FF00228021324800F0FF
:10059C0061FF01224FF480712F4800F05BFF0122B4
:1005AC004FF400712C4800F055FF4EE0294B9B682E
:1005BC001846FFF725FE01224021274800F04AFF8C
:1005CC0001228021244800F045FF00224FF4807165
:1005DC00214800F03FFF01224FF400711E4800F04B
:1005EC0039FF32E01B4BDB681846FFF709FE01228E
:1005FC004021194800F02EFF01228021164800F0FE
:10060C0029FF01224FF48071134800F023FF0022D0
:10061C004FF40071104800F01DFF16E0002240213D
:10062C000D4800F017FF002280210B4800F012FF4C
:10063C0000224FF48071084800F00CFF00224FF4A8
:10064C000071054800F006FF00BF00BF0837BD462B
:10065C0080BD00BF0C0000200008014080B400AF3A
:10066C001A4B1B681A4A82FB03129210DB17D31A1F
:10067C00184A1360154B1968154B83FB01239A100C
:10068C00CB17D21A13469B0013445B00CA1A114BAA
:10069C005A60114B1B680E4A82FB03129210DB1737
:1006AC00D31A0C4A93600C4B1968094B83FB01233A
:1006BC009A10CB17D21A13469B0013445B00CA1A2C
:1006CC00044BDA6000BFBD4680BC704700000020C0
:1006DC00676666660C0000200400002080B500AF41
:1006EC0001224FF48071174800F0B4FE01224FF440
:1006FC000071144800F0AEFE01224FF480611148E5
:10070C0000F0A8FE01224FF400610E4800F0A2FE9A
:10071C0001224FF480510B4800F09CFE01224FF453
:10072C000051084800F096FE01224FF48041054824
:10073C0000F090FE01224FF40041024800F08AFEC6
:10074C0000BF80BD000C014080B582B000AF0346F5
:10075C00FB71FB79072B4BD801A252F823F000BF99
:10076C008D0700089B070008A9070008B7070008B9
:10077C00C5070008D3070008E1070008EF070008C9
:10078C0000224FF480711D4800F064FE31E000221D
:10079C004FF40071194800F05DFE2AE000224FF47E
:1007AC008061164800F056FE23E000224FF40061F1
:1007BC00124800F04FFE1CE000224FF480510F480D
:1007CC0000F048FE15E000224FF400510B4800F0F9
:1007DC0041FE0EE000224FF48041084800F03AFE42
:1007EC0007E000224FF40041044800F033FE00E023
:1007FC0000BF00BF0837BD4680BD00BF000C0140E4
:10080C0080B582B000AF0346FB71FB7903F00103A6
:10081C00DBB21A4604212B4800F01CFEFB795B105E
:10082C00DBB203F00103DBB21A460821254800F0C5
:10083C0011FEFB799B10DBB203F00103DBB21A460D
:10084C004FF480611F4800F005FEFB79DB10DBB232
:10085C0003F00103DBB21A464FF40061194800F0B3
:10086C00F9FDFB791B11DBB203F00103DBB21A4675
:10087C004FF48051134800F0EDFDFB795B11DBB2B6
:10088C0003F00103DBB21A464FF400510D4800F09F
:10089C00E1FDFB799B11DBB203F00103DBB21A46DD
:1008AC004FF48041074800F0D5FDFB79DB09DBB242
:1008BC001A464FF40041034800F0CCFD00BF083746
:1008CC00BD4680BD0008014080B582B000AF7860A5
:1008DC00FFF704FF074A7B6813441B781846FFF7A1
:1008EC008FFF7B68DBB21846FFF72EFF00BF08377F
:1008FC00BD4680BD1C00002080B483B000AF002337
:10090C007B601FE0144A7B6813441B78DB09FB7087
:10091C00114A7B6813441B785B00D9B20E4A7B6882
:10092C0013440A461A700C4A7B6813441A78FB78F5
:10093C001343D9B2084A7B6813440A461A707B6881
:10094C0001337B607B68072BDCDD00BF00BF0C37FD
:10095C00BD4680BC704700BF1C00002080B500AFB6
:10096C0000F068FA00F050F800F0D6F800F088F8C3
:10097C00FFF71CFC1E4801F0CDF94FF47A70FFF71D
:10098C00DFFB1C4B1B68012B07D120211A4800F000
:10099C0079FD4FF4FA60FFF7D3FB184B1B6801335A
:1009AC00164A1360154B1B683B2B07DD134B0022BB
:1009BC001A60134B1B680133114A1360104B1B68F0
:1009CC003B2B07DD0E4B00221A600E4B1B680133CC
:1009DC000C4A13600B4B1B68172B02DD094B0022D2
:1009EC001A60FFF73BFE4FF47A7000F085FAC8E707
:1009FC00500000209C00002000080140080000204E
:100A0C00040000200000002080B590B000AF07F17A
:100A1C00180328220021184601F008FD3B1D002276
:100A2C001A605A609A60DA601A610223BB61012372
:100A3C00BB621023FB6200237B6307F1180318468B
:100A4C0000F03AFD0346002B01D000F039F90F23DA
:100A5C007B600023BB600023FB6000233B61002311
:100A6C007B613B1D0021184600F0A8FF0346002BBC
:100A7C0001D000F025F900BF4037BD4680BD000015
:100A8C0080B586B000AF07F1080300221A605A60E7
:100A9C009A60DA603B4600221A605A601D4B4FF098
:100AAC0080421A601B4B41F63F725A60194B002270
:100ABC009A60184B0922DA60164B00221A61154B0A
:100ACC0000229A61134801F0D5F80346002B01D09F
:100ADC0000F0F6F84FF48053BB6007F10803194699
:100AEC000C4801F053FA0346002B01D000F0E8F853
:100AFC0000233B6000237B603B461946054801F010
:100B0C002BFC0346002B01D000F0DAF800BF18379D
:100B1C00BD4680BD5000002080B586B000AF07F107
:100B2C00080300221A605A609A60DA60224B9B69B3
:100B3C00214A43F0040393611F4B9B6903F00403A8
:100B4C007B607B681C4B9B691B4A43F008039361D9
:100B5C00194B9B6903F008033B603B6800224FF67E
:100B6C00FC71164800F076FC00224FF67F71144899
:100B7C0000F070FC4FF6FC73BB600123FB6000239C
:100B8C003B6102237B6107F1080319460B4800F017
:100B9C00E5FA4FF67F73BB600123FB6000233B61DA
:100BAC0002237B6107F108031946054800F0D6FAC9
:100BBC0000BF1837BD4680BD001002400008014040
:100BCC00000C014080B582B000AF7860FFF7D4FA1A
:100BDC00344B1B680133334A1360324B1B68002BB8
:100BEC0012DD314B1B681846FFF76EFE2E4B1B684F
:100BFC000133082293FBF2F101FB02F29B1A2A4A01
:100C0C001360284B00221A60284B1B680133274ABB
:100C1C001360264B1B68632B04DDFFF76DFE234B23
:100C2C0000221A60224B1A68224B83FB0213191103
:100C3C00D317CB1AFA2101FB03F3D31A002B0FD1D4
:100C4C001D4B1B685A1C1C490A601846FFF764FCB4
:100C5C00194B1B680422934202D3174B00221A60D3
:100C6C00134B1A68134B83FB02139911D317CB1A2E
:100C7C004FF47A7101FB03F3D31A002B03D110212B
:100C8C000E4800F0FFFB0A4B1B68002B03DD084BE2
:100C9C001B68013B00E0C823054A136000BF0837FE
:100CAC00BD4680BDAC000020A0000020A8000020A4
:100CBC0024000020D34D6210A40000200008014045
:100CCC0080B400AF72B600BFFEE7000080B485B000
:100CDC0000AF154B9B69144A43F001039361124B0F
:100CEC009B6903F00103BB60BB680F4BDB690E4AC9
:100CFC0043F08053D3610C4BDB6903F080537B6072
:100D0C007B680A4B5B68FB60FB6823F0E063FB606D
:100D1C00FB6843F08063FB60044AFB68536000BFD0
:100D2C001437BD4680BC70470010024000000140E3
:100D3C0080B584B000AF78607B681B68B3F1804FDE
:100D4C0013D10C4BDB690B4A43F00103D361094B04
:100D5C00DB6903F00103FB60FB68002200211C200F
:100D6C0000F0C5F91C2000F0DEF900BF1037BD46BD
:100D7C0080BD00BF0010024080B400AFFEE780B41D
:100D8C0000AFFEE780B400AFFEE780B400AFFEE733
:100D9C0080B400AFFEE780B400AF00BFBD4680BC9E
:100DAC00704780B400AF00BFBD4680BC704780B4B4
:100DBC0000AF00BFBD4680BC704780B500AF00F0EF
:100DCC007FF800BF80BD000080B500AF024800F086
:100DDC00EDFF00BF80BD00BF5000002080B400AF0D
:100DEC0000BFBD4680BC7047FFF7F8FF0B480C49AD
:100DFC000C4A002302E0D458C4500433C4188C426B
:100E0C00F9D3094A094C002301E013600432A242D1
:100E1C00FBD301F013FBFFF7A1FD7047000000208E
:100E2C0034000020D424000834000020B40000203A
:100E3C00FEE7000080B500AF084B1B68074A43F083
:100E4C0010031360032000F047F90F2000F008F89E
:100E5C00FFF73CFF0023184680BD00BF0020024076
:100E6C0080B582B000AF7860124B1A68124B1B78B9
:100E7C0019464FF47A73B3FBF1F3B2FBF3F3184654
:100E8C0000F05FF90346002B01D001230EE07B68D4
:100E9C000F2B0AD8002279684FF0FF3000F027F9A9
:100EAC00064A7B681360002300E0012318460837CC
:100EBC00BD4680BD28000020300000202C00002002
:100ECC0080B400AF054B1B781A46054B1B681344C6
:100EDC00034A136000BFBD4680BC70473000002041
:100EEC00B000002080B400AF024B1B681846BD4612
:100EFC0080BC7047B000002080B584B000AF786033
:100F0C00FFF7F0FFB8607B68FB60FB68B3F1FF3F55
:100F1C0005D00A4B1B781A46FB681344FB6000BFD4
:100F2C00FFF7E0FF0246BB68D31AFA689A42F7D87B
:100F3C0000BF00BF1037BD4680BD00BF3000002091
:100F4C0080B485B000AF78607B6803F00703FB606A
:100F5C000C4BDB68BB60BA684FF6FF031340BB60F9
:100F6C00FB681A02BB68134343F0BF6343F40033BE
:100F7C00BB60044ABB68D36000BF1437BD4680BC5D
:100F8C00704700BF00ED00E080B400AF044BDB689D
:100F9C001B0A03F007031846BD4680BC704700BF10
:100FAC0000ED00E080B483B000AF0346FB7197F90D
:100FBC000730002B0BDBFB7903F01F02064997F976
:100FCC0007305B09012000FA02F241F8232000BF30
:100FDC000C37BD4680BC704700E100E080B483B0A4
:100FEC0000AF03463960FB7197F90730002B0ADB21
:100FFC003B68DAB20C4997F907301201D2B20B44B4
:10100C0083F800230AE03B68DAB20849FB7903F065
:10101C000F03043B1201D2B20B441A7600BF0C37FB
:10102C00BD4680BC704700BF00E100E000ED00E071
:10103C0080B489B000AFF860B9607A60FB6803F0E7
:10104C000703FB61FB69C3F10703042B28BF0423CF
:10105C00BB61FB690433062B02D9FB69033B00E03F
:10106C0000237B614FF0FF32BB6902FA03F3DA43D2
:10107C00BB681A407B699A404FF0FF317B6901FADB
:10108C0003F3D9437B680B40134318462437BD4602
:10109C0080BC704780B582B000AF78607B68013B44
:1010AC00B3F1807F01D301230FE00A4A7B68013B37
:1010BC0053600F214FF0FF30FFF790FF054B0022DC
:1010CC009A60044B07221A60002318460837BD4665
:1010DC0080BD00BF10E000E080B582B000AF78604A
:1010EC007868FFF72DFF00BF0837BD4680BD80B57F
:1010FC0086B000AF0346B9607A60FB7300237B6156
:10110C00FFF742FF78617A68B9687869FFF790FF5A
:10111C00024697F90F3011461846FFF75FFF00BFE4
:10112C001837BD4680BD80B582B000AF0346FB7159
:10113C0097F907301846FFF735FF00BF0837BD4653
:10114C0080BD80B582B000AF78607868FFF7A2FFF1
:10115C00034618460837BD4680BD000080B48BB0EE
:10116C0000AF7860396000237B6200233B6261E151
:10117C0001227B6A02FA03F3FB613B681B68FA6984
:10118C001340BB61BA69FB699A4240F050813B68DD
:10119C005B68974A93425ED0954A934275D8954ABC
:1011AC00934258D0934A93426FD8934A934252D069
:1011BC00914A934269D8914A93424CD08F4A9342B8
:1011CC0063D88F4A934246D08D4A93425DD8122BF6
:1011DC002AD8122B59D801A252F823F06312000816
:1011EC003D1200084F1200089112000897120008D7
:1011FC00971200089712000897120008971200081F
:10120C00971200089712000897120008971200080E
:10121C0097120008971200089712000897120008FE
:10122C004512000859120008764A934213D02CE05C
:10123C003B68DB683B6229E03B68DB6804333B625C
:10124C0024E03B68DB6808333B621FE03B68DB68EB
:10125C000C333B621AE03B689B68002B02D10423E1
:10126C003B6213E03B689B68012B05D108233B6272
:10127C007B68FA691A6109E008233B627B68FA69AA
:10128C005A6103E000233B6200E000BFBB69FF2B07
:10129C0001D87B6801E07B6804337B61BB69FF2B61
:1012AC0002D87B6A9B0002E07B6A083B9B003B6197
:1012BC007B691A680F213B6901FA03F3DB431A407F
:1012CC00396A3B6901FA03F31A437B691A603B687C
:1012DC005B6803F08053002B00F0A9804A4B9B699C
:1012EC00494A43F001039361474B9B6903F00103A7
:1012FC00BB60BB68454A7B6A9B08023352F82330BB
:10130C00FB607B6A03F003039B000F2202FA03F3DA
:10131C00DB43FA681340FB607B683D4A93420DD077
:10132C007B683C4A934207D07B683B4A934201D18D
:10133C00022304E0032302E0012300E000237A6A85
:10134C0002F0030292009340FA681343FB602F49AA
:10135C007B6A9B080233FA6841F823203B685B6880
:10136C0003F48013002B06D02C4B9A682B49BB69D5
:10137C0013438B6006E0294B9A68BB69DB43274912
:10138C0013408B603B685B6803F40013002B06D0A2
:10139C00224BDA682149BB691343CB6006E01F4B33
:1013AC00DA68BB69DB431D491340CB603B685B6863
:1013BC0003F40033002B06D0184B5A681749BB694D
:1013CC0013434B6006E0154B5A68BB69DB4313496A
:1013DC0013404B603B685B6803F48033002B1FD0D9
:1013EC000E4B1A680D49BB6913430B601FE000BF1D
:1013FC0000003210000031100000221000002110FB
:10140C0000001210000011100010024000000140FA
:10141C0000080140000C0140001001400004014094
:10142C000B4B1A68BB69DB43094913400B607B6AA1
:10143C0001337B623B681A687B6A22FA03F3002B48
:10144C007FF496AE00BF00BF2C37BD4680BC704702
:10145C000004014080B483B000AF78600B467B8001
:10146C0013467B707B78002B03D07A887B681A61DB
:10147C0003E07B881A047B681A6100BF0C37BD46F9
:10148C0080BC704780B485B000AF78600B467B8021
:10149C007B68DB68FB607A88FB6813401A04FB6886
:1014AC00D9437B880B401A437B681A6100BF143701
:1014BC00BD4680BC7047000080B586B000AF786038
:1014CC007B68002B01D1012372E27B681B6803F05F
:1014DC000103002B00F08780924B5B6803F00C0338
:1014EC00042B0CD08F4B5B6803F00C03082B12D130
:1014FC008C4B5B6803F48033B3F5803F0BD1894B85
:10150C001B6803F40033002B6CD07B685B68002BEA
:10151C0068D101234CE27B685B68B3F5803F06D150
:10152C00804B1B687F4A43F4803313602EE07B684A
:10153C005B68002B0CD17B4B1B687A4A23F48033FD
:10154C001360784B1B68774A23F4802313601DE0EB
:10155C007B685B68B3F5A02F0CD1724B1B68714A8A
:10156C0043F4802313606F4B1B686E4A43F4803343
:10157C0013600BE06B4B1B686A4A23F480331360D7
:10158C00684B1B68674A23F4802313607B685B6895
:10159C00002B13D0FFF7A6FC386108E0FFF7A2FC84
:1015AC0002463B69D31A642B01D9032300E25D4B3D
:1015BC001B6803F40033002BF0D014E0FFF792FC0F
:1015CC00386108E0FFF78EFC02463B69D31A642BA6
:1015DC0001D90323ECE1534B1B6803F40033002BBC
:1015EC00F0D100E000BF7B681B6803F00203002B06
:1015FC0063D04C4B5B6803F00C03002B0BD0494BB6
:10160C005B6803F00C03082B1CD1464B5B6803F49E
:10161C008033002B16D1434B1B6803F00203002BC5
:10162C0005D07B681B69012B01D00123C0E13D4B28
:10163C001B6823F0F8027B685B69DB0039491343B4
:10164C000B603AE07B681B69002B20D0364B0122E3
:10165C001A60FFF747FC386108E0FFF743FC0246CD
:10166C003B69D31A022B01D90323A1E12D4B1B6833
:10167C0003F00203002BF0D02A4B1B6823F0F80276
:10168C007B685B69DB00274913430B6015E0264B35
:10169C0000221A60FFF726FC386108E0FFF722FCF5
:1016AC0002463B69D31A022B01D9032380E11D4B5F
:1016BC001B6803F00203002BF0D17B681B6803F05E
:1016CC000803002B3AD07B689B69002B19D0174B71
:1016DC0001221A60FFF706FC386108E0FFF702FCF4
:1016EC0002463B69D31A022B01D9032360E10D4B4F
:1016FC005B6A03F00203002BF0D0012000F09CFA8F
:10170C001CE00A4B00221A60FFF7ECFB38610FE07B
:10171C00FFF7E8FB02463B69D31A022B08D90323D7
:10172C0046E100BF001002400000424280044242E9
:10173C00924B5B6A03F00203002BE9D17B681B68B8
:10174C0003F00403002B00F0A6800023FB758B4BE9
:10175C00DB6903F08053002B0DD1884BDB69874A82
:10176C0043F08053D361854BDB6903F08053BB603E
:10177C00BB680123FB75824B1B6803F48073002B41
:10178C0018D17F4B1B687E4A43F480731360FFF7BC
:10179C00A9FB386108E0FFF7A5FB02463B69D31AA9
:1017AC00642B01D9032303E1754B1B6803F480738D
:1017BC00002BF0D07B68DB68012B06D16F4B1B6ACA
:1017CC006E4A43F0010313622DE07B68DB68002B4B
:1017DC000CD16A4B1B6A694A23F001031362674BF5
:1017EC001B6A664A23F0040313621CE07B68DB6807
:1017FC00052B0CD1614B1B6A604A43F00403136246
:10180C005E4B1B6A5D4A43F0010313620BE05B4BBA
:10181C001B6A5A4A23F001031362584B1B6A574A3E
:10182C0023F0040313627B68DB68002B15D0FFF7F1
:10183C0059FB38610AE0FFF755FB02463B69D31AA6
:10184C0041F28832934201D90323B1E04B4B1B6A1E
:10185C0003F00203002BEED014E0FFF743FB3861DA
:10186C000AE0FFF73FFB02463B69D31A41F288328C
:10187C00934201D903239BE0404B1B6A03F0020304
:10188C00002BEED1FB7D012B05D13C4BDB693B4A98
:10189C0023F08053D3617B68DB69002B00F08780D9
:1018AC00364B5B6803F00C03082B61D07B68DB695B
:1018BC00022B46D1334B00221A60FFF713FB386121
:1018CC0008E0FFF70FFB02463B69D31A022B01D944
:1018DC0003236DE0294B1B6803F00073002BF0D140
:1018EC007B681B6AB3F5803F08D1244B5B6823F4FB
:1018FC0000327B689B68214913434B601F4B5B682C
:10190C0023F474127B68196A7B685B6A0B431B496E
:10191C0013434B601B4B01221A60FFF7E3FA38614B
:10192C0008E0FFF7DFFA02463B69D31A022B01D914
:10193C0003233DE0114B1B6803F00073002BF0D028
:10194C0035E0104B00221A60FFF7CCFA386108E042
:10195C00FFF7C8FA02463B69D31A022B01D90323BD
:10196C0026E0064B1B6803F00073002BF0D11EE041
:10197C007B68DB69012B07D1012319E000100240C1
:10198C0000700040600042420B4B5B68FB60FB68E0
:10199C0003F480327B681B6A9A4206D1FB6803F41D
:1019AC0070127B685B6A9A4201D0012300E000232D
:1019BC0018461837BD4680BD0010024080B584B073
:1019CC0000AF786039607B68002B01D10123D0E037
:1019DC006A4B1B6803F007033A689A4210D9674BAD
:1019EC001B6823F0070265493B6813430B60634B8C
:1019FC001B6803F007033A689A4201D00123B8E050
:101A0C007B681B6803F00203002B20D07B681B68EB
:101A1C0003F00403002B05D0594B5B68584A43F480
:101A2C00E06353607B681B6803F00803002B05D050
:101A3C00534B5B68524A43F460535360504B5B68A2
:101A4C0023F0F0027B689B684D4913434B607B6825
:101A5C001B6803F00103002B40D07B685B68012BF3
:101A6C0007D1474B1B6803F40033002B15D101231E
:101A7C007FE07B685B68022B07D1414B1B6803F04E
:101A8C000073002B09D1012373E03D4B1B6803F05D
:101A9C000203002B01D101236BE0394B5B6823F06F
:101AAC0003027B685B68364913434B60FFF71AFAF5
:101ABC00F8600AE0FFF716FA0246FB68D31A41F207
:101ACC008832934201D9032353E02D4B5B6803F01A
:101ADC000C027B685B689B009A42EBD1274B1B681E
:101AEC0003F007033A689A4210D2244B1B6823F088
:101AFC00070222493B6813430B60204B1B6803F021
:101B0C0007033A689A4201D0012332E07B681B68D4
:101B1C0003F00403002B08D0194B5B6823F4E0623C
:101B2C007B68DB68164913434B607B681B6803F0CA
:101B3C000803002B09D0124B5B6823F460527B68BE
:101B4C001B69DB000E4913434B6000F021F8024681
:101B5C000B4B5B681B0903F00F030A49CB5C22FAA1
:101B6C0003F3094A1360094B1B681846FFF778F911
:101B7C00002318461037BD4680BD00BF0020024030
:101B8C0000100240A8240008280000202C0000208F
:101B9C0080B487B000AF0023FB600023BB60002340
:101BAC007B6100237B6000233B611E4B5B68FB6009
:101BBC00FB6803F00C03042B02D0082B03D027E0A6
:101BCC00194B3B6127E0FB689B0C03F00F03174A92
:101BDC00D35C7B60FB6803F48033002B10D0114B7B
:101BEC005B685B0C03F00103114AD35CBB607B6840
:101BFC000D4A03FB02F2BB68B2FBF3F37B6104E01A
:101C0C007B680C4A02FB03F37B617B693B6102E05E
:101C1C00054B3B6100BF3B6918461C37BD4680BC79
:101C2C00704700BF0010024000127A00B824000870
:101C3C00C824000800093D0080B485B000AF78606E
:101C4C000A4B1B680A4AA2FB03235B0A7A6802FB55
:101C5C0003F3FB6000BFFB685A1EFA60002BF9D13E
:101C6C0000BF00BF1437BD4680BC70472800002061
:101C7C00D34D621080B582B000AF78607B68002BCA
:101C8C0001D1012341E07B6893F83D30DBB2002B9E
:101C9C0006D17B68002283F83C207868FFF748F86F
:101CAC007B68022283F83D207B681A687B680433CA
:101CBC001946104600F056FA7B68012283F846203C
:101CCC007B68012283F83E207B68012283F83F2049
:101CDC007B68012283F840207B68012283F8412035
:101CEC007B68012283F842207B68012283F8432021
:101CFC007B68012283F844207B68012283F845200D
:101D0C007B68012283F83D20002318460837BD4626
:101D1C0080BD000080B485B000AF78607B6893F81C
:101D2C003D30DBB2012B01D0012335E07B68022270
:101D3C0083F83D207B681B68DA687B681B6842F07F
:101D4C000102DA607B681B68164A934209D07B68F3
:101D5C001B68B3F1804F04D07B681B68124A934216
:101D6C0011D17B681B689B6803F00703FB60FB6861
:101D7C00062B10D07B681B681A687B681B6842F0C6
:101D8C0001021A6007E07B681B681A687B681B6895
:101D9C0042F001021A60002318461437BD4680BC7D
:101DAC00704700BF002C01400004004080B584B097
:101DBC0000AF78607B681B68DB68FB607B681B6826
:101DCC001B69BB60BB6803F00203002B20D0FB68CF
:101DDC0003F00203002B1BD07B681B686FF0020220
:101DEC001A617B6801221A777B681B689B6903F078
:101DFC000303002B03D0786800F098F905E07868AD
:101E0C0000F08BF9786800F09AF97B6800221A7759
:101E1C00BB6803F00403002B20D0FB6803F0040321
:101E2C00002B1BD07B681B686FF004021A617B6867
:101E3C0002221A777B681B689B6903F44073002BA2
:101E4C0003D0786800F072F905E0786800F065F965
:101E5C00786800F074F97B6800221A77BB6803F08D
:101E6C000803002B20D0FB6803F00803002B1BD0C9
:101E7C007B681B686FF008021A617B6804221A7772
:101E8C007B681B68DB6903F00303002B03D07868C5
:101E9C0000F04CF905E0786800F03FF9786800F044
:101EAC004EF97B6800221A77BB6803F01003002BF5
:101EBC0020D0FB6803F01003002B1BD07B681B6841
:101ECC006FF010021A617B6808221A777B681B6816
:101EDC00DB6903F44073002B03D0786800F026F91B
:101EEC0005E0786800F019F9786800F028F97B684B
:101EFC0000221A77BB6803F00103002B0CD0FB689F
:101F0C0003F00103002B07D07B681B686FF0010204
:101F1C001A617868FEF756FEBB6803F08003002B4D
:101F2C000CD0FB6803F08003002B07D07B681B6888
:101F3C006FF080021A61786800F06FFABB6803F0EA
:101F4C004003002B0CD0FB6803F04003002B07D0A0
:101F5C007B681B686FF040021A61786800F0F8F833
:101F6C00BB6803F02003002B0CD0FB6803F02003AC
:101F7C00002B07D07B681B686FF020021A61786811
:101F8C0000F042FA00BF1037BD4680BD80B584B06A
:101F9C0000AF786039600023FB737B6893F83C30AA
:101FAC00012B01D10223B4E07B68012283F83C2091
:101FBC007B68022283F83D207B681B689B68BB60B2
:101FCC00BB6823F07703BB60BB6823F47F43BB6023
:101FDC007B681B68BA689A603B681B68B3F5005F46
:101FEC003ED0B3F5005F00F28780B3F5805F00F060
:101FFC008680B3F5805F7FD8702B1AD0702B7BD87E
:10200C00602B50D0602B77D8502B3CD0502B73D8F2
:10201C00402B58D0402B6FD8302B64D0302B6BD842
:10202C00202B60D0202B67D8002B5CD0102B5AD0E3
:10203C0062E07B6818683B6899683B685A683B6843
:10204C00DB6800F06AF97B681B689B68BB60BB6847
:10205C0043F07703BB607B681B68BA689A604FE0FB
:10206C007B6818683B6899683B685A683B68DB6812
:10207C0000F053F97B681B689A687B681B6842F414
:10208C0080429A603CE07B6818683B6859683B6802
:10209C00DB681A4600F0CAF87B681B6850211846AA
:1020AC0000F021F92CE07B6818683B6859683B68A4
:1020BC00DB681A4600F0E8F87B681B68602118465C
:1020CC0000F011F91CE07B6818683B6859683B68A4
:1020DC00DB681A4600F0AAF87B681B68402118469A
:1020EC0000F001F90CE07B681A683B681B68194624
:1020FC00104600F0F8F803E00123FB7300E000BF8A
:10210C007B68012283F83D207B68002283F83C2009
:10211C00FB7B18461037BD4680BD80B483B000AF42
:10212C00786000BF0C37BD4680BC704780B483B06C
:10213C0000AF786000BF0C37BD4680BC704780B4E0
:10214C0083B000AF786000BF0C37BD4680BC7047D1
:10215C0080B483B000AF786000BF0C37BD4680BC44
:10216C007047000080B485B000AF786039607B6840
:10217C001B68FB607B682B4A934207D07B68B3F1EA
:10218C00804F03D07B68284A934208D1FB6823F028
:10219C007003FB603B685B68FA681343FB607B6809
:1021AC00204A934207D07B68B3F1804F03D07B6801
:1021BC001D4A934208D1FB6823F44073FB603B68D3
:1021CC00DB68FA681343FB60FB6823F080023B6812
:1021DC005B691343FB607B68FA681A603B689A681A
:1021EC007B68DA623B681A687B689A627B680D4A86
:1021FC00934203D13B681A697B681A637B6801229E
:10220C005A617B681B6903F00103002B05D07B68C6
:10221C001B6923F001027B681A6100BF1437BD46AD
:10222C0080BC7047002C01400004004080B487B093
:10223C0000AFF860B9607A60FB681B6A7B61FB6871
:10224C001B6A23F00102FB681A62FB689B693B6105
:10225C003B6923F0F0033B617B681B013A69134334
:10226C003B617B6923F00A037B617A69BB6813438A
:10227C007B61FB683A699A61FB687A691A6200BFF4
:10228C001C37BD4680BC704780B487B000AFF86087
:10229C00B9607A60FB681B6A7B61FB681B6A23F080
:1022AC001002FB681A62FB689B693B613B6923F473
:1022BC0070433B617B681B033A6913433B617B6949
:1022CC0023F0A0037B61BB681B017A6913437B611C
:1022DC00FB683A699A61FB687A691A6200BF1C371D
:1022EC00BD4680BC704780B485B000AF7860396063
:1022FC007B689B68FB60FB6823F07003FB603A68AB
:10230C00FB68134343F00703FB607B68FA689A6031
:10231C0000BF1437BD4680BC704780B487B000AF97
:10232C00F860B9607A603B60FB689B687B617B6995
:10233C0023F47F437B613B681A027B681A43BB68BA
:10234C0013437A6913437B61FB687A699A6000BF17
:10235C001C37BD4680BC704780B485B000AF786038
:10236C0039607B6893F83C30012B01D1022341E0AA
:10237C007B68012283F83C207B68022283F83D2095
:10238C007B681B685B68FB607B681B689B68BB6039
:10239C00FB6823F07003FB603B681B68FA6813430F
:1023AC00FB607B681B68FA685A607B681B68144A80
:1023BC00934209D07B681B68B3F1804F04D07B68D3
:1023CC001B68104A93420CD1BB6823F08003BB609E
:1023DC003B685B68BA681343BB607B681B68BA6870
:1023EC009A607B68012283F83D207B68002283F889
:1023FC003C20002318461437BD4680BC704700BFF4
:10240C00002C01400004004080B483B000AF786021
:10241C0000BF0C37BD4680BC704780B483B000AFA2
:10242C00786000BF0C37BD4680BC70470346024441
:10243C00934200D1704703F8011BF9E770B50026F1
:10244C000C4D0D4C641BA410A64209D100F01AF8D7
:10245C0000260A4D0A4C641BA410A64205D170BD7F
:10246C0055F8043B98470136EEE755F8043B98477E
:10247C000136F2E7CC240008CC240008CC24000858
:10248C00D0240008F8B500BFF8BC08BC9E467047C5
:0C249C00F8B500BFF8BC08BC9E467047B5
:1024A80000000000000000000102030406070809FC
:1024B80002030405060708090A0B0C0D0E0F10107D
:0424C800010200000D
:0424CC0031010008D2
:0424D0000D010008F2
:1024D4000F000000080000003200000001000000AE
:1024E400020000000300000004000000FFE7DBBD61
:1024F40081BDBDFFC800000000127A00100000007A
:0425040001000000D2
:0400000508000DF5ED
:00000001FF
